:020000040800F2
:1000000000800120DD530008F5520008FB52000873
:1000100001530008075300080D53000800000000BA
:100020000000000000000000000000001353000862
:1000300021530008000000002F5300083D53000822
:100040002D5400082D5400082D5400082D5400088C
:100050002D5400082D5400082D5400082D5400087C
:100060002D5400082D5400082D5400082D5400086C
:100070002D5400082D5400082D5400082D5400085C
:100080002D5400082D5400082D5400082D5400084C
:100090002D5400082D5400082D5400082D5400083C
:1000A0002D5400082D5400082D5400082D5400082C
:1000B0002D5400082D5400082D5400082D5400081C
:1000C0002D5400082D5400082D5400082D5400080C
:1000D0002D5400082D5400082D5400082D540008FC
:1000E0002D5400082D5400082D5400082D540008EC
:1000F0002D5400082D5400082D5400082D540008DC
:100100002D5400082D5400082D5400082D540008CB
:100110002D5400082D5400082D54000849530008A0
:100120002D5400082D5400082D5400082D540008AB
:100130002D5400082D5400082D5400082D5400089B
:100140002D5400082D5400082D5400082D5400088B
:100150002D5400082D5400082D5400082D5400087B
:100160002D5400082D5400082D5400082D5400086B
:100170002D5400082D5400082D54000800000000E4
:080180002D5400082D54000865
:1001880010B5054C237833B9044B13B10448AFF3C9
:1001980000800123237010BD100000200000000023
:1001A8008854000808B5034B1BB103490348AFF353
:1001B800008008BD000000001400002088540008DA
:1001C80053B94AB9002908BF00281CBF4FF0FF31B6
:1001D8004FF0FF3000F072B9ADF1080C6DE904CEB4
:1001E80000F006F8DDF804E0DDE9022304B070470A
:1001F8002DE9F047089E04468846002B4BD18A42D9
:10020800154667D9B2FA82F24AB1C2F1200701FA5B
:1002180002F320FA07F7954047EA030894404FEAAB
:10022800154E230CB8FBFEF71FFA85FC0EFB17884A
:1002380043EA084307FB0CF1994209D9EB1807F187
:10024800FF3080F01B81994240F21881023F2B4415
:100258005B1AA4B2B3FBFEF00EFB103344EA03446E
:1002680000FB0CFCA44509D92C1900F1FF3380F0E0
:100278000781A44540F2048102382C4440EA074033
:10028800A4EB0C0400271EB1D4400023C6E90043A8
:100298003946BDE8F0878B4209D9002E00F0EB8083
:1002A8000027C6E9000138463946BDE8F087B3FAA9
:1002B80083F7002F47D18B4202D3824200F2FA80A3
:1002C800841A61EB030301209846002EE0D0C6E9AA
:1002D8000048DDE702B9FFDEB2FA82F2002A40F0F8
:1002E8008F80491B4FEA154E1FFA85F80127B1FB8D
:1002F800FEFC230C0EFB1C1143EA014308FB0CF126
:10030800994207D9EB180CF1FF3002D2994200F25A
:10031800CD808446591AA3B2B1FBFEF00EFB10142F
:1003280043EA044408FB00F8A04507D92C1900F15A
:10033800FF3302D2A04500F2B6801846A4EB0804A9
:1003480040EA0C409FE7C7F1200CBB4022FA0CFEA4
:100358004EEA030E01FA07F420FA0CF521FA0CF321
:100368004FEA1E482543B3FBF8F92C0C08FB193358
:100378001FFA8EFA44EA034309FB0AF49C4202FA84
:1003880007F200FA07F10BD91EEB030309F1FF305E
:1003980080F087809C4240F28480A9F1020973446E
:1003A8001B1BADB2B3FBF8F008FB103345EA03445E
:1003B80000FB0AFAA24508D91EEB040400F1FF333A
:1003C8006BD2A24569D90238744440EA0940A0FBBF
:1003D8000289A4EB0A044C45C2464B4654D351D07B
:1003E800002E69D0B1EB0A0564EB030404FA0CFC97
:1003F800FD40FC404CEA0505C6E90054002747E7E4
:10040800C2F1200320FA03F7954001FA02F021FA1D
:1004180003F34FEA154E3843010CB3FBFEF71FFAFE
:1004280085F80EFB173341EA034107FB08F38B42BB
:1004380004FA02F407D9691807F1FF3C2FD28B425E
:100448002DD9023F2944CB1A81B2B3FBFEF00EFB33
:10045800103341EA034100FB08F38B4207D96918BE
:1004680000F1FF3C17D28B4215D902382944C91A2A
:1004780040EA07473BE73746304609E70746E7E6DD
:100488001846FBE64145ABD2B8EB020A69EB0E020F
:1004980001381346A4E76046E9E7184695E767463A
:1004A800D1E781467CE702382C4447E7ACF1020CDF
:1004B8002B442FE7384608E73746E9E6704700BF80
:1004C80080B582B000AF0023FB710C4B1B680B4A50
:1004D80043F480731360032001F010FE002000F045
:1004E8000FF80346002B02D00123FB7101E004F052
:1004F800B1FDFB7918460837BD4680BD0020024093
:1005080080B584B000AF78600023FB73174B1B786D
:10051800002B23D0164B1A68144B1B7819464FF43E
:100528007A73B3FBF1F3B2FBF3F3184601F01BFE49
:100538000346002B0FD17B680F2B09D8002279685E
:100548004FF0FF3001F0E5FD0A4A7B68136007E0D1
:100558000123FB7304E00123FB7301E00123FB7318
:10056800FB7B18461037BD4680BD00BF0400002045
:10057800080000200000002080B400AF064B1B7864
:100588001A46064B1B681344044A136000BFBD4655
:100598005DF8047B704700BF040000203000002095
:1005A80080B400AF034B1B681846BD465DF8047B5A
:1005B800704700BF3000002080B584B000AF78607D
:1005C800FFF7EEFFB8607B68FB60FB68B3F1FF3FA5
:1005D80005D0094B1B781A46FB681344FB6000BF23
:1005E800FFF7DEFF0246BB68D31AFA689A42F7D8CB
:1005F80000BF1037BD4680BD0400002080B483B022
:1006080000AF786039607B689B6823F47C123B6894
:100618001A437B689A6000BF0C37BD465DF8047BBF
:10062800704780B483B000AF786039607B689B689E
:1006380023F0E0723B681A437B689A6000BF0C376E
:10064800BD465DF8047B704780B483B000AF786026
:100658007B689B6803F0E07318460C37BD465DF86D
:10066800047B704780B487B000AFF860B9607A60E7
:100678003B60FB6860331A46BB689B0013447B6190
:100688007B691A68084B13407A6802F0F8413A68A7
:100698000A43134343F000427B691A6000BF1C37CA
:1006A800BD465DF8047B704700F0FF0380B485B059
:1006B80000AF786039607B6860331A463B689B00FE
:1006C8001344FB60FB681B6803F0F84318461437B3
:1006D800BD465DF8047B704780B487B000AFF86012
:1006E800B9607A60FB6860331A46BB689B001344A4
:1006F8007B617B691B6823F000427B681A437B6936
:100708001A6000BF1C37BD465DF8047B704780B493
:1007180083B000AF78607B68DB6803F44063002B2C
:1007280001D1012300E0002318460C37BD465DF8CF
:10073800047B704780B487B000AFF860B9607A6016
:10074800FB6830331A46BB681B0A9B0003F00C0396
:1007580013447B617B691A68BB6803F01F031F2180
:1007680001FA03F3DB431A407B689B0E03F01F0179
:10077800BB6803F01F0301FA03F31A437B691A608D
:1007880000BF1C37BD465DF8047B704780B487B056
:1007980000AFF860B9607A60FB6814331A46BB682A
:1007A8005B0E9B0003F0040313447B617B691A68AA
:1007B800BB681B0D03F01F03072101FA03F3DB439A
:1007C8001A40BB681B0D03F01F03796801FA03F395
:1007D8001A437B691A6000BF1C37BD465DF8047B6D
:1007E8007047000080B485B000AFF860B9607A60E7
:1007F800FB68D3F8B020BB68C3F31203DB431A408D
:100808007B6803F018030849D940BB680B40C3F361
:1008180012031A43FB68C3F8B02000BF1437BD4663
:100828005DF8047B704700BFFFFF070080B483B00A
:1008380000AF78607B689B6803F01F0318460C378D
:10084800BD465DF8047B704780B483B000AF786024
:100858007B689B6803F4604318460C37BD465DF817
:10086800047B704780B483B000AF78607B689B6876
:1008780023F0204323F03F037A68936000BF0C37CE
:10088800BD465DF8047B704780B483B000AF7860E4
:100898007B689B6803F00053B3F1005F01D101232B
:1008A80000E0002318460C37BD465DF8047B70470E
:1008B80080B483B000AF78607B689B6823F01043F6
:1008C80023F03F0343F080527B689A6000BF0C37E7
:1008D800BD465DF8047B704780B483B000AF786094
:1008E8007B689B6803F08053B3F1805F01D10123DB
:1008F80000E0002318460C37BD465DF8047B7047BE
:1009080080B483B000AF78607B689B6823F00043B5
:1009180023F03F0343F001027B689A6000BF0C3765
:10092800BD465DF8047B704780B483B000AF786043
:100938007B689B6823F0004323F03F0343F00202E7
:100948007B689A6000BF0C37BD465DF8047B704732
:1009580080B483B000AF78607B689B6803F00103C4
:10096800012B01D1012300E0002318460C37BD46B6
:100978005DF8047B704780B483B000AF78607B6813
:100988009B6803F00203022B01D1012300E000233E
:1009980018460C37BD465DF8047B704780B483B0B9
:1009A80000AF78607B689B6823F0004323F03F0327
:1009B80043F004027B689A6000BF0C37BD465DF8BF
:1009C800047B704780B483B000AF78607B689B6815
:1009D80023F0004323F03F0343F010027B689A6042
:1009E80000BF0C37BD465DF8047B704780B483B008
:1009F80000AF78607B689B6803F00403042B01D187
:100A0800012300E0002318460C37BD465DF8047B3F
:100A1800704780B483B000AF78607B689B6823F030
:100A2800004323F03F0343F020027B689A6000BF35
:100A38000C37BD465DF8047B704780B483B000AFC7
:100A480078607B689B6803F00803082B01D10123B9
:100A580000E0002318460C37BD465DF8047B70475C
:100A680090B589B000AF78600023FB770023BB60A6
:100A78007B68002B01D1012334E17B681B69002BC3
:100A88007B685B6D002B09D1786804F007FB7B68F5
:100A980000229A657B68002283F850207B681B68D7
:100AA8001846FFF7F1FE0346002B04D07B681B684D
:100AB8001846FFF7D7FE7B681B681846FFF70CFF40
:100AC8000346002B13D17B681B681846FFF7F0FE1E
:100AD800864B1B689B09864AA2FB03239B09BB60C4
:100AE80002E0BB68013BBB60BB68002BF9D17B68A7
:100AF8001B681846FFF7F0FE0346002B0DD17B68F4
:100B08005B6D43F010027B685A657B689B6D43F010
:100B180001027B689A650123FB777B681B6818468E
:100B2800FFF764FF78617B685B6D03F01003002BAF
:100B380040F0CF807B69002B40F0CB807B685B6DF9
:100B480023F4817343F002027B685A657B681B6853
:100B58001846FFF7FDFE0346002B15D16548FFF741
:100B6800F7FE04466448FFF7F3FE03461C43634858
:100B7800FFF7EEFE03462343002B05D17B685B6835
:100B880019465F48FFF73AFD7B685B7E5A037B682E
:100B98005B6B1A437B68DB681A437B689B681A4364
:100BA8007B6893F820301B041343BB617B6893F880
:100BB8002030012B06D17B685B6A013B5B04BA6974
:100BC8001343BB617B689B6A002B09D07B689B6AD7
:100BD80003F470727B68DB6A1343BA691343BB6121
:100BE8007B681B68DA68474B13407A681268B969F2
:100BF8000B43D3607B681B681846FFF7F7FE386124
:100C08007B681B681846FFF718FFF8603B69002BE4
:100C18003DD1FB68002B3AD17B681B7E9A037B6829
:100C280093F830305B001343BB617B681B68DB685B
:100C380023F4804323F002037A681268B9690B43EE
:100C4800D3607B6893F83830012B18D17B681B6818
:100C58001B6923F4FF6323F004037A68D16B7A6875
:100C6800126C11437A68526C11437A68926C0A4389
:100C78001A437B681B6842F001021A6107E07B682F
:100C88001B681A697B681B6822F001021A617B687D
:100C98001B69012B0CD17B681B681B6B23F00F01B0
:100CA8007B68DB695A1E7B681B680A431A6307E086
:100CB8007B681B681A6B7B681B6822F00F021A633B
:100CC8007B685B6D23F0030343F001027B685A6580
:100CD80007E07B685B6D43F010027B685A6501236F
:100CE800FB77FB7F18462437BD4690BD08000020DF
:100CF800632D3E050000045000010450000204501A
:100D08000003045007C0F0FF80B586B000AF7860DC
:100D18005748FFF78BFD38617B681B681846FFF75B
:100D280065FE0346002B40F09C807B6893F85030AA
:100D3800012B01D1022397E07B68012283F8502020
:100D4800786800F04FFE0346FB75FB7D002B40F0F2
:100D580083807B685B6D23F4706323F0010343F4A5
:100D680080727B685A657B681B68424A934202D04E
:100D78007B681B6800E0404B7A681268934202D097
:100D88003B69002B05D17B685B6D23F480127B687F
:100D98005A657B685B6D03F48053B3F5805F06D1B9
:100DA8007B689B6D23F006027B689A6502E07B688E
:100DB80000229A657B681B681C221A607B680022E7
:100DC80083F850207B681B682A4A934202D07B68CC
:100DD8001B6800E0284B7A681268934208D03B6988
:100DE800002B05D03B69052B02D03B69092B14D198
:100DF8007B681B68DB6803F00073002B07D07B68F7
:100E08005B6D23F4405343F480527B685A657B68DA
:100E18001B681846FFF7C2FD25E07B685B6D43F44D
:100E280080127B685A657B681B68124A934202D01D
:100E38007B681B6800E0104BFB60FB68DB6803F015
:100E48000073002B0FD07B685B6D23F4405343F491
:100E580080527B685A6506E07B68002283F8502040
:100E680001E00223FB75FB7D18461837BD4680BD9F
:100E780000030450000104500000045080B584B001
:100E880000AF78607B6893F85030012B01D10223C2
:100E980023E07B68012283F850200321786800F062
:100EA800EDFC0346FB73FB7B002B11D1786800F047
:100EB800F3FD0346FB73FB7B002B09D17B685B6D5D
:100EC80023F4885323F0010343F001027B685A6539
:100ED8007B68002283F85020FB7B18461037BD46FC
:100EE80080BD000080B588B000AF78603960624886
:100EF800FFF79CFC78617B685B69082B02D10823AB
:100F0800FB612AE07B69002B05D07B69052B02D0A9
:100F18007B69092B11D17B681B68DB6803F001032F
:100F2800002B07D07B685B6D43F020027B685A6515
:100F380001239DE00423FB610FE04F48FFF784FC89
:100F48000346002B07D07B685B6D43F020027B686B
:100F58005A6501238CE00423FB61FFF721FB38610C
:100F68001AE03B68B3F1FF3F16D0FFF719FB0246C2
:100F78003B69D31A3A689A4202D33B68002B0BD1DB
:100F88007B685B6D43F004027B685A657B680022CE
:100F980083F8502003236BE07B681B681A68FB69A1
:100FA8001340002BDDD07B685B6D43F400727B68D7
:100FB8005A657B681B681846FFF7A9FB0346002B98
:100FC8001CD07B685B7E002B18D17B681B681B6874
:100FD80003F00803082B11D17B685B6D23F4807242
:100FE8007B685A657B685B6D03F48053002B05D1E1
:100FF8007B685B6D43F001027B685A657B681B6800
:101008001E4A934202D07B681B6800E01C4B7A683A
:101018001268934208D07B69002B05D07B69052BA9
:1010280002D07B69092B04D17B681B68DB68BB6134
:101038000CE07B681B68114A934202D07B681B68EE
:1010480000E00F4BFB60FB68DB68BB61FB69082BAA
:1010580004D17B681B6808221A6008E0BB6903F4A6
:101068008043002B03D17B681B680C221A60002385
:1010780018462037BD4680BD0003045000010450C7
:101088000000045080B483B000AF78607B681B68B0
:101098001B6C18460C37BD465DF8047B7047000092
:1010A80080B5B6B000AF78603960002387F8D730D4
:1010B8000023FB607B6893F85030012B01D1022399
:1010C800C6E37B68012283F850207B681B681846BA
:1010D800FFF78CFC0346002B40F0A7833B685B6856
:1010E800052B24D83B685B68023B032B1BD801A265
:1010F80052F823F00D110008151100081D11000801
:10110800251100083B680C225A6011E03B68122246
:101118005A600DE03B6818225A6009E03B684FF4BA
:1011280080725A6004E03B6806225A6000E000BF03
:101138007B6818683B6859683B681B681A46FFF764
:10114800F9FA7B681B681846FFF750FCC7F8D0000F
:101158007B681B681846FFF770FCC7F8CC00D7F807
:10116800D030002B40F0A681D7F8CC30002B40F0CF
:10117800A1817B6818683B6819683B689B681A46B8
:10118800FFF704FB3B685A697B681B68DB68DB0870
:1011980003F003035B0002FA03F3C7F8C8303B68A7
:1011A8001B69042B0AD07B6818683B6819693B687F
:1011B8001A68D7F8C830FFF755FA7BE17B681B68D7
:1011C80000211846FFF772FA0346C3F31203002BF7
:1011D8000AD17B681B6800211846FFF767FA0346A7
:1011E8009B0E03F01F021EE07B681B680021184657
:1011F800FFF75CFA0346C7F8BC30D7F8BC3093FA5F
:10120800A3F3C7F8B830D7F8B830C7F8C030D7F864
:10121800C030002B01D1202304E0D7F8C030B3FA46
:1012280083F3DBB21A463B681B68C3F31203002B37
:1012380005D13B681B689B0E03F01F0318E03B6851
:101248001B68C7F8B030D7F8B03093FAA3F3C7F8E3
:10125800AC30D7F8AC30C7F8B430D7F8B430002B7E
:1012680001D1202304E0D7F8B430B3FA83F3DBB21A
:101278009A4206D17B681B68002200211846FFF7B6
:101288002BFA7B681B6801211846FFF70FFA034603
:10129800C3F31203002B0AD17B681B68012118468F
:1012A800FFF704FA03469B0E03F01F021EE07B685B
:1012B8001B6801211846FFF7F9F90346C7F8A4305F
:1012C800D7F8A43093FAA3F3C7F8A030D7F8A03022
:1012D800C7F8A830D7F8A830002B01D1202304E0A4
:1012E800D7F8A830B3FA83F3DBB21A463B681B6819
:1012F800C3F31203002B05D13B681B689B0E03F058
:101308001F0318E03B681B68C7F89830D7F8983077
:1013180093FAA3F3C7F89430D7F89430C7F89C3001
:10132800D7F89C30002B01D1202304E0D7F89C305B
:10133800B3FA83F3DBB29A4206D17B681B680022BA
:1013480001211846FFF7C8F97B681B680221184677
:10135800FFF7ACF90346C3F31203002B0AD17B68ED
:101368001B6802211846FFF7A1F903469B0E03F0FC
:101378001F021EE07B681B6802211846FFF796F9DA
:101388000346C7F88C30D7F88C3093FAA3F3C7F824
:101398008830D7F88830C7F89030D7F89030002BCD
:1013A80001D1202304E0D7F89030B3FA83F3DBB2FD
:1013B8001A463B681B68C3F31203002B05D13B6830
:1013C8001B689B0E03F01F0316E03B681B68C7F8F9
:1013D8008030D7F8803093FAA3F3FB67FB6FC7F828
:1013E8008430D7F88430002B01D1202304E0D7F8CB
:1013F8008430B3FA83F3DBB29A4206D17B681B6868
:10140800002202211846FFF767F97B681B68032151
:101418001846FFF74BF90346C3F31203002B0AD112
:101428007B681B6803211846FFF740F903469B0EAB
:1014380003F01F0217E07B681B6803211846FFF7BB
:1014480035F903467B677B6F93FAA3F33B673B6FE2
:10145800BB67BB6F002B01D1202303E0BB6FB3FA3E
:1014680083F3DBB21A463B681B68C3F31203002BF5
:1014780005D13B681B689B0E03F01F0311E03B6816
:101488001B68BB66BB6E93FAA3F37B667B6EFB6639
:10149800FB6E002B01D1202303E0FB6EB3FA83F32C
:1014A800DBB29A4206D17B681B68002203211846EA
:1014B800FFF712F97B681B681846FFF749FA0346DD
:1014C800002B40F03F817B6818683B6819683B68CF
:1014D800DB681A46FFF786F93B68DB688E4A934259
:1014E80040F030817B6818683B681B68C3F31203BF
:1014F800002B0BD13B681B689B0E013303F01F03C5
:10150800092B94BF01230023DBB219E03B681B6859
:10151800FB65FB6D93FAA3F3BB65BB6D3B663B6E46
:10152800002B01D1202303E03B6EB3FA83F3DBB237
:10153800013303F01F03092B94BF01230023DBB2FF
:10154800002B79D03B681B68C3F31203002B07D12B
:101558003B681B689B0E01339B0603F0F84215E0BD
:101568003B681B683B653B6D93FAA3F3FB64FB6C1C
:101578007B657B6D002B01D1202303E07B6DB3FAE3
:1015880083F3DBB201339B0603F0F8423B681B6828
:10159800C3F31203002B09D13B681B689B0E013370
:1015A80003F01F03012101FA03F317E03B681B68EE
:1015B8007B647B6C93FAA3F33B643B6CBB64BB6CAE
:1015C800002B01D1202303E0BB6CB3FA83F3DBB219
:1015D800013303F01F03012101FA03F342EA030177
:1015E8003B681B68C3F31203002B0AD13B681B68D6
:1015F8009B0E013303F01F0213465B0013441B05C7
:1016080018E03B681B68BB63BB6B93FAA3F37B636F
:101618007B6BFB63FB6B002B01D1202303E0FB6B8F
:10162800B3FA83F3DBB2013303F01F0213465B0006
:1016380013441B050B4380E03B681B68C3F312038C
:10164800002B07D13B681B689B0E01339B0603F0F8
:10165800F84215E03B681B68FB62FB6A93FAA3F348
:10166800BB62BB6A3B633B6B002B01D1202303E0C9
:101678003B6BB3FA83F3DBB201339B0603F0F8420A
:101688003B681B68C3F31203002B09D13B681B6836
:101698009B0E013303F01F03012101FA03F317E046
:1016A8003B681B683B623B6A93FAA3F3FB61FB69E7
:1016B8007B627B6A002B01D1202303E07B6AB3FAAB
:1016C80083F3DBB2013303F01F03012101FA03F3B3
:1016D80042EA03013B681B68C3F31203002B0DD1D8
:1016E8003B681B689B0E013303F01F0213465B0027
:1016F80013441E3B1B0543F000731DE03B681B6849
:101708007B617B6993FAA3F33B613B69BB61BB696E
:10171800002B03D1202305E000007F40BB69B3FA0A
:1017280083F3DBB2013303F01F0213465B0013445B
:101738001E3B1B0543F000730B433A689268194639
:10174800FFF724F83B681A68434B1340002B79D005
:101758004248FEF779FFC7F8C4003B681B68404A57
:1017680093422BD1D7F8C43003F40003002B25D1C2
:101778007B681B683B4A934204D07B681B683A4AE3
:1017880093425CD1D7F8C43043F400031946334878
:10179800FEF747FF354B1B689B09354AA2FB03231D
:1017A8009A0913465B0013449B00FB6002E0FB6848
:1017B800013BFB60FB68002BF9D140E03B681B68EC
:1017C8002C4A934218D1D7F8C43003F08073002B09
:1017D80012D17B681B68234A934204D07B681B683C
:1017E800214A93422DD1D7F8C43043F0807319466B
:1017F8001A48FEF716FF24E03B681B681E4A93420E
:1018080020D1D7F8C43003F48003002B1AD17B68A9
:101818001B68144A934215D1D7F8C43043F48003A7
:1018280019460E48FEF7FDFE0CE07B685B6D43F041
:1018380020027B685A65012387F8D73002E000BF91
:1018480000E000BF7B68002283F8502097F8D7306B
:101858001846D837BD4680BD0000088000030450F4
:10186800000052C700000450000204500800002085
:10187800632D3E05000084CB0100008080B588B050
:1018880000AF786039600023FB613B68BB617B680F
:101898001B681846FFF7AAF838617B681B6818466A
:1018A800FFF7CBF8F8603B69002B03D1FB68002BEE
:1018B80000F090807B681B68DB6803F00073002BE6
:1018C8002AD07B685B7E012B26D17B681B7E012B8F
:1018D80022D10123BB6114E0FB69414A93420DD92F
:1018E8007B685B6D43F010027B685A657B689B6D73
:1018F80043F001027B689A6501236CE0FB690133C0
:10190800FB617B681B681B6803F04003402BE3D135
:101918007B681B6840221A60BB69022B14D07B6865
:101928001B681846FFF762F80346002B0CD07B684B
:101938001B681846FFF71FF80346002B04D17B6885
:101948001B681846FFF73EF8BB69012B14D07B686B
:101958001B681846FFF771F80346002B0CD07B680C
:101968001B681846FFF707F80346002B04D17B686D
:101978001B681846FFF74DF8BB69022B04D0032BF0
:1019880005D10C237B6105E008237B6102E0042379
:101998007B6100BFFEF704FEB86014E0FEF700FEAE
:1019A8000246BB68D31A052B0DD97B685B6D43F0E3
:1019B80010027B685A657B689B6D43F001027B6867
:1019C8009A65012307E07B681B689A687B69134066
:1019D800002BE3D1002318462037BD4680BD00BF49
:1019E800FFFF3FA380B584B000AF78607B681B68B9
:1019F8001846FEF7ADFF0346002B46D17B681B68EF
:101A08009A68244B1340002B0DD07B685B6D43F024
:101A180010027B685A657B689B6D43F001027B6806
:101A28009A65012332E07B681B681846FEF768FF59
:101A3800FEF7B6FDF86021E07B681B681846FEF7E4
:101A480087FF0346002B04D17B681B681846FEF706
:101A580057FFFEF7A5FD0246FB68D31A022B0DD9E6
:101A68007B685B6D43F010027B685A657B689B6DF1
:101A780043F001027B689A65012307E07B681B68D5
:101A88001B6803F00103012BD6D100231846103739
:101A9800BD4680BD3F00008080B584B000AF78604F
:101AA8007B681B681846FEF766FFF8607B681B6852
:101AB8001846FEF74DFF0346002B40D0FB68002B6D
:101AC8003DD17B681B689B6803F00D03012B0CD18B
:101AD8007B681B681846FEF727FF7B681B68032294
:101AE8001A60FEF75DFDB86022E07B685B6D43F02D
:101AF80010027B685A657B689B6D43F001027B6826
:101B08009A6501231CE0FEF74BFD0246BB68D31A19
:101B1800022B0DD97B685B6D43F010027B685A6518
:101B28007B689B6D43F001027B689A65012307E09F
:101B38007B681B689B6803F00103002BE3D100233B
:101B480018461037BD4680BD80B485B000AFF86038
:101B5800B9607A60FB68D3F8B420BB6803F07F13E0
:101B6800DB431A40BB68190BBB6803F07F03DB43F8
:101B78000B4003F01003796801FA03F31A43FB687A
:101B8800C3F8B42000BF1437BD465DF8047B704726
:101B980080B483B000AF786039607B68D3F8B42034
:101BA8003B68134003F07F123B681B0B03F01003E4
:101BB80022FA03F318460C37BD465DF8047B7047DC
:101BC80080B483B000AF78607B689B6803F0010342
:101BD800012B01D1012300E0002318460C37BD4634
:101BE8005DF8047B704780B483B000AF78603960DB
:101BF8007B689B6823F0404323F03F033A6802F078
:101C08008042134343F000427B689A6000BF0C3760
:101C1800BD465DF8047B704780B483B000AF786040
:101C28007B689B6803F00043B3F1004F01D10123A7
:101C380000E0002318460C37BD465DF8047B70476A
:101C480080B483B000AF78607B689B6803F00403BE
:101C5800042B01D1012300E0002318460C37BD46B0
:101C68005DF8047B704780B483B000AF78607B6810
:101C78009B6803F00803082B01D1012300E000232F
:101C880018460C37BD465DF8047B704780B584B0B4
:101C980000AF786039600023BB607B6893F85030F0
:101CA800012B01D102234DE07B68012283F85020EB
:101CB8007868FFF7F1FE0346FB73FB7B002B36D1F8
:101CC8007B685B6D23F4885323F0020343F0020220
:101CD8007B685A657B681B6839681846FFF783FF7D
:101CE80014E0BB680133BB60BB68B3F5912F0DD31B
:101CF8007B685B6D23F0120343F010027B685A6522
:101D08007B68002283F8502001231BE07B681B6856
:101D18001846FFF781FF0346002BE2D17B685B6D15
:101D280023F0030343F001027B685A6505E07B68F2
:101D38005B6D43F010027B685A657B68002283F86C
:101D48005020FB7B18461037BD4680BD80B582B059
:101D580000AF786039607B681B6839681846FFF700
:101D680017FF034618460837BD4680BD80B588B0C2
:101D780000AFF860B9607A600023FB77FB6893F8DE
:101D88005030012B01D1022338E0FB68012283F88F
:101D98005020FB681B681846FFF752FFB861FB68C4
:101DA8001B681846FFF75FFF7861FB681B681846D9
:101DB800FFF706FF0346002B0DD0BB69002B0AD1A5
:101DC8007B69002B07D1FB681B687A68B9681846DD
:101DD800FFF7BAFE0DE0FB685B6D43F02002FB687D
:101DE8005A65FB689B6D43F00102FB689A65012305
:101DF800FB77FB68002283F85020FB7F18462037CA
:101E0800BD4680BD90B59FB000AF786039600023B3
:101E180087F877307B6893F85030012B01D1022383
:101E28008FE07B68012283F850207B681B68474A53
:101E3800934202D1464BBB6001E00023BB60BB6804
:101E4800002B0BD17B685B6D43F020027B685A65E1
:101E58007B68002283F85020012372E0BB68184693
:101E6800FFF7EEFE38677B681B681846FFF7E8FE49
:101E78000346002B54D13B6F002B51D1354BFB66E9
:101E88003B681B68002B2CD0FB6E9B6823F46042D8
:101E98003B6859687B6893F830305B030B431A43FF
:101EA800FB6E9A602948FFF78BFE04462848FFF727
:101EB80087FE03461C432848FFF782FE0346234358
:101EC800002B37D1FB6E9B6823F4716323F00F035B
:101ED8003A6811683A6892680A431A43FB6E9A6036
:101EE80028E0FB6E9B6823F46042FB6E9A601748FB
:101EF800FFF766FE04461648FFF762FE03461C43DA
:101F08001548FFF75DFE03462343002B12D1FB6EF5
:101F18009B6823F4716323F00F03FA6E936009E062
:101F28007B685B6D43F020027B685A65012387F864
:101F3800773000E000BF7B68002283F8502097F8D4
:101F4800773018467C37BD4690BD00BF000004506E
:101F580000010450000304500002045080B485B00E
:101F680000AF78607B6803F00703FB600C4BDB680D
:101F7800BB60BA684FF6FF031340BB60FB681A02E8
:101F8800BB68134343F0BF6343F40033BB60044AA8
:101F9800BB68D36000BF1437BD465DF8047B70474B
:101FA80000ED00E080B400AF044BDB681B0A03F0CF
:101FB80007031846BD465DF8047B704700ED00E056
:101FC80080B483B000AF0346FB7197F90730002B4C
:101FD8000BDBFB7903F01F02074997F907305B0910
:101FE800012000FA02F241F8232000BF0C37BD4659
:101FF8005DF8047B704700BF00E100E080B483B067
:1020080000AF03463960FB7197F90730002B0ADBF4
:102018003B68DAB20C4997F907301201D2B20B4487
:1020280083F800230AE03B68DAB20849FB7903F039
:102038000F03043B1201D2B20B441A7600BF0C37CF
:10204800BD465DF8047B704700E100E000ED00E06C
:1020580080B489B000AFF860B9607A60FB6803F0BB
:102068000703FB61FB69C3F10703042B28BF0423A3
:10207800BB61FB690433062B02D9FB69033B00E013
:1020880000237B614FF0FF32BB6902FA03F3DA43A6
:10209800BB681A407B699A404FF0FF317B6901FAAF
:1020A80003F3D9437B680B40134318462437BD46D6
:1020B8005DF8047B7047000080B582B000AF78609F
:1020C8007B68013BB3F1807F01D301230FE00A4A0B
:1020D8007B68013B53600F214FF0FF30FFF78EFF05
:1020E800054B00229A60044B07221A600023184609
:1020F8000837BD4680BD00BF10E000E080B582B063
:1021080000AF78607868FFF729FF00BF0837BD4641
:1021180080BD80B586B000AF0346B9607A60FB73B6
:1021280000237B61FFF73EFF78617A68B9687869B8
:10213800FFF78EFF024697F90F3011461846FFF752
:102148005DFF00BF1837BD4680BD80B582B000AFC7
:102158000346FB7197F907301846FFF731FF00BFB8
:102168000837BD4680BD80B582B000AF786078681A
:10217800FFF7A2FF034618460837BD4680BD80B565
:1021880082B000AF78607B68002B01D1012314E096
:102198007B681B79DBB2002B05D17B6800225A7162
:1021A800786802F0FBFF7B6802221A717B680022C4
:1021B8001A617B6801221A71002318460837BD4648
:1021C80080BD80B483B000AF786039607B685B798C
:1021D800012B01D102233BE07B6801225A717B6805
:1021E80002221A717B681B6819683B6803F01003A8
:1021F80001229A407B681B680A431A603B68002BDF
:102208000FD17B681B681B6803F03C03042B18D1B3
:102218007B681B685A687B681B6842F001025A6039
:102228000FE07B681B681B6803F47013B3F5802FFD
:1022380007D17B681B685A687B681B6842F00202FA
:102248005A607B6801221A717B6800225A71002348
:1022580018460C37BD465DF8047B704780B487B0DC
:1022680000AFF860B9607A603B6000237B61FB686F
:102278001B687B61BB68002B05D17A697B681344B6
:1022880008337B6104E07A697B68134414337B610B
:102298007B691A463B681360002318461C37BD4605
:1022A8005DF8047B704780B588B000AFF860B9600E
:1022B8007A600023FB61FB685B79012B01D1022363
:1022C80007E1FB6801225A71FB6802221A71BB6898
:1022D8001B68042B74D1FEF763F9F8617B68002B47
:1022E80034D111E0FEF75CF90246FB69D31A012BE1
:1022F8000AD9FB681B6943F00802FB681A61FB688E
:1023080003221A710323E4E0FB681B685B6B03F488
:102318000043002BE6D10120FEF74EF9FB681B684D
:10232800BA6892691A641EE0FEF73AF90246FB6938
:10233800D31A012B0AD9FB681B6943F00802FB6812
:102348001A61FB6803221A710323C2E0FB681B6849
:102358005B6B002BE8DB0120FEF72EF9FB681B689E
:10236800BA6892695A64FB681B689A6C7B6803F0C8
:10237800100340F2FF3101FA03F3DB4302EA0301E1
:10238800BB68DA697B6803F010039A40FB681B6836
:102398000A439A64FB681B68DA6C7B6803F01003D5
:1023A800FF2101FA03F3DB4302EA0301BB681A6A5F
:1023B8007B6803F010039A40FB681B680A43DA64E1
:1023C800BB681B69012B1DD1FB681B689B6BBB613C
:1023D8007B6803F010031F2202FA03F3DB43BA6998
:1023E8001340BB61BB685B697B617B6803F01003CA
:1023F8007A6902FA03F3BA691343BB61FB681B6885
:10240800BA699A63FB681B68DB6BBB617B6803F086
:102418001003072202FA03F3DB43BA691340BB61D6
:10242800BB681A68BB689B681A43BB68DB681343C0
:102438007B617B6803F010037A6902FA03F3BA69D7
:102448001343BB61FB681B68BA69DA63FB681B68E6
:1024580019687B6803F010034FF4804202FA03F313
:10246800DA43FB681B680A401A60FB681B681B6834
:10247800BB617B6803F0100340F6FC7202FA03F3B9
:10248800DB43BA691340BB61BB685B687B617B68EF
:1024980003F010037A6902FA03F3BA691343BB61C4
:1024A800FB681B68BA691A60FB681B6819687B6857
:1024B80003F01003C02202FA03F3DA43FB681B6837
:1024C8000A401A60FB6801221A71FB6800225A71DF
:1024D800002318462037BD4680BD000080B487B071
:1024E80000AF7860396000237B617FE13B681A6840
:1024F80001217B6901FA03F31340FB60FB68002BA1
:1025080000F071813B685B68012B0BD03B685B680E
:10251800022B07D03B685B68112B03D03B685B68D4
:10252800122B30D17B689B683B617B695B0003227F
:1025380002FA03F3DB433A6913403B613B68DA680C
:102548007B695B0002FA03F33A6913433B617B68DA
:102558003A699A607B685B683B6101227B6902FA91
:1025680003F3DB433A6913403B613B685B681B0933
:1025780003F001027B6902FA03F33A6913433B61F2
:102588007B683A695A603B685B6803F00303032B76
:1025980018D17B68DB6A3B6101227B6902FA03F38D
:1025A800DB433A6913403B613B685B68DB0803F037
:1025B80001027B6902FA03F33A6913433B617B68C2
:1025C8003A69DA627B68DB683B617B695B000322FE
:1025D80002FA03F3DB433A6913403B613B689A68AC
:1025E8007B695B0002FA03F33A6913433B617B683A
:1025F8003A69DA603B685B68022B03D03B685B682A
:10260800122B23D17B69DA087B68083253F8223011
:102618003B617B6903F007039B000F2202FA03F377
:10262800DB433A6913403B613B681A697B6903F0F5
:1026380007039B0002FA03F33A6913433B617B6982
:10264800DA087B680832396943F822107B681B680E
:102658003B617B695B00032202FA03F3DB433A69BF
:1026680013403B613B685B6803F003027B695B00D6
:1026780002FA03F33A6913433B617B683A691A60CB
:102688003B685B6803F08053002B00F0AC805E4B26
:102698001B6E5D4A43F0010313665B4B1B6E03F030
:1026A8000103BB60BB68594A7B699B08023352F837
:1026B80023303B617B6903F003039B000F2202FA7E
:1026C80003F3DB433A6913403B617B68B3F1904FF6
:1026D80025D07B684E4A93421FD07B684D4A93426F
:1026E80019D07B684C4A934213D07B684B4A93427B
:1026F8000DD07B684A4A934207D07B68494A934287
:1027080001D106230CE007230AE0052308E004238F
:1027180006E0032304E0022302E0012300E0002393
:102728007A6902F00302920093403A6913433B61CD
:1027380036497B699B0802333A6941F823203A4BB2
:102748001B683B61FB68DB433A6913403B613B68AC
:102758005B6803F48033002B03D03A69FB681343AA
:102768003B61314A3B6913602F4B5B683B61FB68F7
:10277800DB433A6913403B613B685B6803F4003311
:10278800002B03D03A69FB6813433B61264A3B6937
:102798005360254B9B683B61FB68DB433A691340F8
:1027A8003B613B685B6803F48013002B03D03A69F4
:1027B800FB6813433B611C4A3B6993601A4BDB6817
:1027C8003B61FB68DB433A6913403B613B685B68EC
:1027D80003F40013002B03D03A69FB6813433B61F1
:1027E800114A3B69D3607B6901337B613B681A6896
:1027F8007B6922FA03F3002B7FF478AE00BF1C3705
:10280800BD465DF8047B704700100240000001409F
:102818000004004800080048000C00480010004868
:1028280000140048001800480004014080B483B038
:1028380000AF78600B467B8013467B707B78002B5B
:1028480003D07A887B689A6102E07A887B689A620A
:1028580000BF0C37BD465DF8047B704780B485B077
:1028680000AF78600B467B807B685B69FB607A8889
:10287800FB6813401A04FB68D9437B880B401A4352
:102888007B689A6100BF1437BD465DF8047B7047CA
:1028980080B400AF044B1B6803F4C0631846BD4600
:1028A8005DF8047B704700BF0070004080B485B0BD
:1028B80000AF78607B68B3F5007F30D1234B1B688D
:1028C80003F4C063B3F5007F38D0204B1B6823F4B2
:1028D800C0631E4A43F4007313601D4B1B68322209
:1028E80002FB03F31B4AA2FB03239B0C0133FB608F
:1028F80002E0FB68013BFB60144B5B6903F48063F7
:10290800B3F5806F02D1FB68002BF2D10F4B5B69E6
:1029180003F48063B3F5806F10D103230FE00B4BF2
:102928001B6803F4C063B3F5806F07D0074B1B68BF
:1029380023F4C063054A43F48063136000231846F8
:102948001437BD465DF8047B704700BF0070004037
:102958000800002083DE1B4380B588B000AF786094
:102968007B68002B01D10123D4E3A14B9B6803F0C2
:102978000C03BB619E4BDB6803F003037B617B6840
:102988001B6803F01003002B00F0E480BB69002BE8
:1029980007D0BB690C2B40F08B807B69012B40F082
:1029A8008780934B1B6803F00203002B05D07B68DC
:1029B8009B69002B01D10123ACE37B681A6A8C4B1D
:1029C8001B6803F00803002B04D0894B1B6803F035
:1029D800F00305E0864BD3F894301B0903F0F003AD
:1029E800934223D27B681B6A184600F007FD034612
:1029F800002B01D001238DE37D4B1B687C4A43F0FB
:102A0800080313607A4B1B6823F0F0027B681B6A8B
:102A1800774913430B60764B5B6823F47F427B68EE
:102A2800DB691B02724913434B6025E0704B1B683E
:102A38006F4A43F0080313606D4B1B6823F0F002E4
:102A48007B681B6A6A4913430B60694B5B6823F414
:102A58007F427B68DB691B02654913434B60BB6996
:102A6800002B09D17B681B6A184600F0C7FC034697
:102A7800002B01D001234DE300F036FC01465C4BEE
:102A88009B681B0903F00F035A4AD35C03F01F032A
:102A980021FA03F3584A1360584B1B681846FDF790
:102AA8002FFD0346FB73FB7B002B52D0FB7B31E3EE
:102AB8007B689B69002B32D04D4B1B684C4A43F016
:102AC80001031360FDF76CFD386108E0FDF768FD50
:102AD80002463B69D31A022B01D903231AE3444B5C
:102AE8001B6803F00203002BF0D0414B1B68404ADF
:102AF80043F0080313603E4B1B6823F0F0027B6829
:102B08001B6A3B4913430B60394B5B6823F47F42D4
:102B18007B68DB691B02364913434B601AE0344B70
:102B28001B68334A23F001031360FDF739FD386150
:102B380008E0FDF735FD02463B69D31A022B01D99F
:102B48000323E7E22A4B1B6803F00203002BF0D1B2
:102B580000E000BF7B681B6803F00103002B74D002
:102B6800BB69082B05D0BB690C2B0ED17B69032BE5
:102B78000BD11F4B1B6803F40033002B64D07B6818
:102B88005B68002B60D10123C4E27B685B68B3F506
:102B9800803F06D1164B1B68154A43F480331360F7
:102BA8001DE07B685B68B3F5A02F0CD1104B1B6848
:102BB8000F4A43F4802313600D4B1B680C4A43F4FF
:102BC800803313600BE00A4B1B68094A23F48033F7
:102BD8001360074B1B68064A23F4802313607B6845
:102BE8005B68002B1CD0FDF7DBFC386111E000BFEF
:102BF80000100240A0540008080000200000002037
:102C0800FDF7CEFC02463B69D31A642B01D9032396
:102C180080E2AF4B1B6803F40033002BF0D014E0C4
:102C2800FDF7BEFC386108E0FDF7BAFC02463B69D7
:102C3800D31A642B01D903236CE2A54B1B6803F458
:102C48000033002BF0D100E000BF7B681B6803F065
:102C58000203002B60D0BB69042B05D0BB690C2B89
:102C680019D17B69022B16D1994B1B6803F4806339
:102C7800002B05D07B68DB68002B01D1012349E2DA
:102C8800934B5B6823F0F8527B681B691B069049DD
:102C980013434B6040E07B68DB68002B23D08C4BF0
:102CA8001B688B4A43F480731360FDF779FC386125
:102CB80008E0FDF775FC02463B69D31A022B01D9DF
:102CC800032327E2824B1B6803F48063002BF0D0B8
:102CD8007F4B5B6823F0F8527B681B691B067C49B5
:102CE80013434B6018E07A4B1B68794A23F48073CE
:102CF8001360FDF755FC386108E0FDF751FC02460A
:102D08003B69D31A022B01D9032303E2704B1B68DA
:102D180003F48063002BF0D17B681B6803F0080381
:102D2800002B3CD07B685B69002B1CD0684BD3F828
:102D38009430674A43F00103C2F89430FDF730FC41
:102D4800386108E0FDF72CFC02463B69D31A022BD8
:102D580001D90323DEE15E4BD3F8943003F002037C
:102D6800002BEFD01BE05A4BD3F89430584A23F08D
:102D78000103C2F89430FDF713FC386108E0FDF751
:102D88000FFC02463B69D31A022B01D90323C1E188
:102D98004F4BD3F8943003F00203002BEFD17B683C
:102DA8001B6803F00403002B00F0A6800023FB77C8
:102DB800474B9B6D03F08053002B0DD1444B9B6D0B
:102DC800434A43F080539365414B9B6D03F0805316
:102DD800BB60BB680123FB773E4B1B6803F4807321
:102DE800002B18D13B4B1B683A4A43F4807313609D
:102DF800FDF7D6FB386108E0FDF7D2FB02463B69D8
:102E0800D31A022B01D9032384E1324B1B6803F444
:102E18008073002BF0D07B689B68012B08D12C4B6A
:102E2800D3F890302A4A43F00103C2F8903024E0E6
:102E38007B689B68052B10D1254BD3F89030244A2A
:102E480043F00403C2F89030214BD3F89030204A65
:102E580043F00103C2F890300FE01D4BD3F89030D7
:102E68001B4A23F00103C2F89030194BD3F8903075
:102E7800174A23F00403C2F890307B689B68002B44
:102E880016D0FDF78DFB38610AE0FDF789FB024695
:102E98003B69D31A41F28832934201D9032339E1BD
:102EA8000B4BD3F8903003F00203002BEDD01AE05F
:102EB800FDF776FB38610FE0FDF772FB02463B69D0
:102EC800D31A41F28832934206D9032322E100BF84
:102ED8000010024000700040904BD3F8903003F08F
:102EE8000203002BE8D1FB7F012B05D18B4B9B6D97
:102EF8008A4A23F0805393657B689B6A002B00F015
:102F080008817B689B6A022B40F0D080834BDB688A
:102F18007B617B6903F003027B68DB6A9A4230D1EC
:102F28007B6903F070027B681B6B013B1B019A42B3
:102F380027D17B6903F4FE427B685B6B1B029A42D4
:102F48001FD17B6903F400337A68926B072A14BF98
:102F580001220022D2B2934213D17B6903F4C0024A
:102F68007B68DB6B5B08013B5B059A4209D17B6997
:102F780003F0C0627B681B6C5B08013B5B069A42EE
:102F88006ED0BB690C2B69D0644B1B6803F080635F
:102F9800002B05D1614B1B6803F08053002B01D037
:102FA8000123B7E05D4B1B685C4A23F08073136014
:102FB800FDF7F6FA386108E0FDF7F2FA02463B69D8
:102FC800D31A022B01D90323A4E0544B1B6803F046
:102FD8000073002BF0D1514BDA68514B13407A68DB
:102FE800D16A7A68126B013A120111437A68526BFE
:102FF800120211437A68D26B5208013A5205114302
:103008007A68126C5208013A520611437A68926B38
:10301800120952040A4341491343CB603F4B1B68D2
:103028003E4A43F0807313603C4BDB683B4A43F0F5
:103038008073D360FDF7B4FA386108E0FDF7B0FAA1
:1030480002463B69D31A022B01D9032362E0334BB2
:103058001B6803F00073002BF0D05AE0012359E0FD
:103068002E4B1B6803F00073002B52D12B4B1B68AF
:103078002A4A43F080731360284BDB68274A43F0E1
:103088008073D360FDF78CFA386108E0FDF788FAA1
:1030980002463B69D31A022B01D903233AE01F4B9E
:1030A8001B6803F00073002BF0D032E0BB690C2BD7
:1030B8002DD01A4B1B68194A23F080731360174BE5
:1030C8001B6803F02053002B05D1144BDB68134A0F
:1030D80023F00303D360114BDB68104A23F0887395
:1030E80023F48033D360FDF75BFA386108E0FDF71D
:1030F80057FA02463B69D31A022B01D9032309E088
:10310800064B1B6803F00073002BF0D101E001238C
:1031180000E0002318462037BD4680BD001002405D
:103128008C809DF980B584B000AF786039607B6889
:10313800002B01D10123C8E0664B1B6803F007038D
:103148003A689A4210D9634B1B6823F00702614919
:103158003B6813430B605F4B1B6803F007033A6837
:103168009A4201D00123B0E07B681B6803F0010399
:10317800002B4CD07B685B68032B07D1564B1B6830
:1031880003F00073002B21D101239EE07B685B686C
:10319800022B07D1504B1B6803F40033002B15D1C9
:1031A800012392E07B685B68002B07D14A4B1B68C0
:1031B80003F00203002B09D1012386E0464B1B686C
:1031C80003F48063002B01D101237EE0424B9B680E
:1031D80023F003027B685B683F4913438B60FDF76C
:1031E800DFF9F8600AE0FDF7DBF90246FB68D31A5D
:1031F80041F28832934201D9032366E0364B9B683B
:1032080003F00C027B685B689B009A42EBD17B68F9
:103218001B6803F00203002B08D02F4B9B6823F098
:10322800F0027B689B682C4913438B60294B1B6811
:1032380003F007033A689A4210D2264B1B6823F022
:10324800070224493B6813430B60224B1B6803F0B9
:1032580007033A689A4201D0012336E07B681B686D
:1032680003F00403002B08D01B4B9B6823F4E06297
:103278007B68DB68184913438B607B681B6803F025
:103288000803002B09D0144B9B6823F460527B6819
:103298001B69DB00104913438B6000F025F80146D9
:1032A8000D4B9B681B0903F00F030C4AD35C03F01A
:1032B8001F0321FA03F30A4A13600A4B1B681846D6
:1032C800FDF71EF90346FB72FB7A18461037BD4618
:1032D80080BD00BF0020024000100240A05400083A
:1032E800080000200000002080B489B000AF00234F
:1032F800FB610023BB613D4B9B6803F00C033B6102
:103308003A4BDB6803F00303FB603B69002B05D0F5
:103318003B690C2B21D1FB68012B1ED1334B1B6859
:1033280003F00803002B07D1304BD3F894301B0A65
:1033380003F00F03FB6105E02C4B1B681B0903F02E
:103348000F03FB612A4AFB6952F82330FB613B6992
:10335800002B0DD1FB69BB610AE03B69042B02D14C
:10336800244BBB6104E03B69082B01D1224BBB61B4
:103378003B690C2B33D11D4BDB6803F00303BB60A7
:10338800BB68022B02D0032B03D005E0194B7B61ED
:1033980005E0194B7B6102E0FB697B6100BF134BC1
:1033A800DB681B0903F0070301337B600F4BDB6805
:1033B8001B0A03F07F037A6902FB03F27B68B2FB06
:1033C800F3F37B61094BDB685B0E03F00303013306
:1033D8005B003B607A693B68B2FBF3F3BB61BB6996
:1033E80018462437BD465DF8047B7047001002403C
:1033F800B85400080024F40000127A0080B586B0A2
:1034080000AF786000233B612A4B9B6D03F080532B
:10341800002B03D0FFF73CFA786114E0254B9B6D35
:10342800244A43F080539365224B9B6D03F08053ED
:10343800FB60FB68FFF72CFA78611E4B9B6D1D4AF9
:1034480023F0805393657B69B3F5007F0BD17B68CC
:10345800802B19D97B68A02B02D902233B6113E08A
:1034680001233B6110E07B68802B02D903233B6179
:103478000AE07B68802B02D102233B6104E07B6871
:10348800702B01D101233B610B4B1B6823F0070212
:1034980009493B6913430B60074B1B6803F007039B
:1034A8003A699A4201D0012300E0002318461837F0
:1034B800BD4680BD001002400020024080B586B0A5
:1034C80000AF78600023FB740023BB747B681B6823
:1034D80003F40063002B3FD07B685B6EB3F5800F6D
:1034E8001CD0B3F5800F02D8002B0ED01FE0B3F527
:1034F800000F03D0B3F5400F1CD018E0854BDB68F4
:10350800844A43F48033D36015E07B680433002198
:10351800184600F0B9FA0346FB740CE07B682033C8
:103528000021184600F0A0FB0346FB7403E00123CA
:10353800FB7400E000BFFB7C002B0BD1754BD3F86C
:10354800883023F440027B685B6E72491343C1F8EC
:10355800883001E0FB7CBB747B681B6803F48053F4
:10356800002B3FD07B689B6EB3F1807F1CD0B3F1FA
:10357800807F02D8002B0ED01FE0B3F1007F03D06C
:10358800B3F1407F1CD018E0624BDB68614A43F41A
:103598008033D36015E07B6804330021184600F0BF
:1035A80073FA0346FB740CE07B682033002118464D
:1035B80000F05AFB0346FB7403E00123FB7400E0B0
:1035C80000BFFB7C002B0BD1524BD3F8883023F083
:1035D80040727B689B6E4F491343C1F8883001E005
:1035E800FB7CBB747B681B6803F40033002B00F082
:1035F800A08000237B74474B9B6D03F08053002B06
:1036080001D1012300E00023002B0DD0414B9B6D1D
:10361800404A43F0805393653E4B9B6D03F08053C3
:10362800BB60BB6801237B743B4B1B683A4A43F47D
:1036380080731360FCF7B4FFF86009E0FCF7B0FF93
:103648000246FB68D31A022B02D90323FB7405E058
:10365800314B1B6803F48073002BEFD0FB7C002BED
:103668005CD12C4BD3F8903003F440737B617B69B9
:10367800002B1FD07B68D3F884307A699A4219D01E
:10368800244BD3F8903023F440737B61214BD3F85B
:103698009030204A43F48033C2F890301D4BD3F861
:1036A80090301C4A23F48033C2F89030194A7B6961
:1036B800C2F890307B6903F00103002B16D0FCF7A9
:1036C8006FFFF8600BE0FCF76BFF0246FB68D31A4C
:1036D80041F28832934202D90323FB7406E00D4B72
:1036E800D3F8903003F00203002BECD0FB7C002BC6
:1036F8000CD1084BD3F8903023F440727B68D3F890
:10370800843004491343C1F8903009E0FB7CBB7452
:1037180006E000BF0010024000700040FB7CBB7454
:103728007B7C012B05D19E4B9B6D9D4A23F08053DA
:1037380093657B681B6803F00103002B0AD0984B44
:10374800D3F8883023F003027B689B6B94491343BA
:10375800C1F888307B681B6803F00203002B0AD08D
:103768008F4BD3F8883023F00C027B68DB6B8C49D5
:103778001343C1F888307B681B6803F00403002BEF
:103788000AD0874BD3F8883023F030027B681B6C53
:1037980083491343C1F888307B681B6803F008032A
:1037A800002B0AD07E4BD3F8883023F0C0027B6808
:1037B8005B6C7B491343C1F888307B681B6803F056
:1037C8001003002B0AD0764BD3F8883023F44072CC
:1037D8007B689B6C72491343C1F888307B681B680F
:1037E80003F02003002B0AD06D4BD3F8883023F464
:1037F80040627B68DB6C6A491343C1F888307B6898
:103808001B6803F40073002B0AD0654BD3F888308B
:1038180023F440227B68DB6D61491343C1F888308B
:103828007B681B6803F48063002B0AD05C4BD3F8D9
:10383800883023F440127B681B6E59491343C1F842
:1038480088307B681B6803F04003002B0AD0544B78
:10385800D3F8883023F440527B681B6D50491343DA
:10386800C1F888307B681B6803F08003002B0AD0FE
:103878004B4BD3F8883023F440427B685B6D484952
:103888001343C1F888307B681B6803F48073002BEE
:103898000AD0434BD3F8883023F440327B689B6DC1
:1038A8003F491343C1F888307B681B6803F4005311
:1038B800002B28D03A4BD3F8883023F040627B683D
:1038C800DB6E37491343C1F888307B68DB6EB3F190
:1038D800006F06D1324BDB68314A43F48013D36062
:1038E80011E07B68DB6EB3F1806F0CD17B68043329
:1038F8000121184600F0C8F80346FB74FB7C002B36
:1039080001D0FB7CBB747B681B6803F40023002B8D
:1039180028D0234BD3F8883023F040627B681B6F94
:103928001F491343C1F888307B681B6FB3F1006FE0
:1039380006D11B4BDB681A4A43F48013D36011E0AD
:103948007B681B6FB3F1806F0CD17B680433012156
:10395800184600F099F80346FB74FB7C002B01D055
:10396800FB7CBB747B681B6803F48023002B2BD083
:103978000B4BD3F8883023F040627B685B6F0849B3
:103988001343C1F888307B685B6FB3F1006F09D1CE
:10399800034BDB68024A43F48013D36014E000BF92
:1039A800001002407B685B6FB3F1806F0CD17B68BD
:1039B80004330121184600F067F80346FB74FB7CCA
:1039C800002B01D0FB7CBB747B681B6803F480432D
:1039D800002B2FD02B4BD3F8883023F040527B6834
:1039E8009B6F28491343C1F888307B689B6FB3F1FC
:1039F800805F0DD17B6804330221184600F044F83B
:103A08000346FB74FB7C002B14D0FB7CBB7411E0D9
:103A18007B689B6FB3F1005F0CD17B682033022178
:103A2800184600F021F90346FB74FB7C002B01D0FB
:103A3800FB7CBB747B681B6803F40043002B0AD033
:103A4800104BD3F8883023F080427B68DB6F0D4938
:103A58001343C1F888307B681B6803F48033002B5C
:103A68000BD0084BD3F8883023F000427B68D3F89A
:103A7800803004491343C1F88830BB7C1846183796
:103A8800BD4680BD0010024080B584B000AF7860AC
:103A980039600023FB73734BDB6803F00303002BCF
:103AA80018D0704BDB6803F003027B681B689A42EE
:103AB8000DD17B681B68002B09D06A4BDB681B099A
:103AC80003F007035A1C7B685B689A4244D00123C1
:103AD800FB7341E07B681B68022B0CD0032B13D0CF
:103AE800012B20D15F4B1B6803F00203002B1DD173
:103AF8000123FB731AE05B4B1B6803F48063002B04
:103B080016D10123FB7313E0564B1B6803F40033F3
:103B1800002B0FD1534B1B6803F48023002B09D1D2
:103B28000123FB7306E00123FB7304E000BF02E0FE
:103B380000BF00E000BFFB7B002B0DD1494BDB68C9
:103B480023F073027B6819687B685B68013B1B0183
:103B58000B4344491343CB60FB7B002B7DD1414B86
:103B68001B68404A23F080631360FCF719FDB860B6
:103B780009E0FCF715FD0246BB68D31A022B02D9EF
:103B88000323FB7305E0374B1B6803F00063002B2E
:103B9800EFD1FB7B002B60D13B68002B11D1314B5F
:103BA8001B6923F41F3323F440737A689268110267
:103BB8007A68D268120952040A432A4913430B61EE
:103BC80027E03B68012B12D1264B1B6923F4C00365
:103BD80023F4FE437A68926811027A6812695208DF
:103BE800013A52050A431F4913430B6111E01D4B6B
:103BF8001B6923F0C06323F4FE437A6892681102BC
:103C08007A6852695208013A52060A431549134321
:103C18000B61144B1B68134A43F080631360FCF775
:103C2800BFFCB86009E0FCF7BBFC0246BB68D31ACE
:103C3800022B02D90323FB7305E00A4B1B6803F030
:103C48000063002BEFD0FB7B002B06D1054B1A69D4
:103C58007B689B69034913430B61FB7B184610374C
:103C6800BD4680BD0010024080B584B000AF7860CA
:103C780039600023FB73684BDB6803F00303002BF8
:103C880018D0654BDB6803F003027B681B689A4217
:103C98000DD17B681B68002B09D05F4BDB681B09C3
:103CA80003F007035A1C7B685B689A4244D00123DF
:103CB800FB7341E07B681B68022B0CD0032B13D0ED
:103CC800012B20D1544B1B6803F00203002B1DD19C
:103CD8000123FB731AE0504B1B6803F48063002B2D
:103CE80016D10123FB7313E04B4B1B6803F400331D
:103CF800002B0FD1484B1B6803F48023002B09D1FC
:103D08000123FB7306E00123FB7304E000BF02E01C
:103D180000BF00E000BFFB7B002B0DD13E4BDB68F2
:103D280023F073027B6819687B685B68013B1B01A1
:103D38000B4339491343CB60FB7B002B67D1364BD0
:103D48001B68354A23F080531360FCF729FCB860E0
:103D580009E0FCF725FC0246BB68D31A022B02D9FE
:103D68000323FB7305E02C4B1B6803F00053002B67
:103D7800EFD1FB7B002B4AD13B68002B11D1264B9E
:103D88005B6923F41F3323F440737A689268110245
:103D98007A68D268120952040A431F4913434B61D7
:103DA80011E01D4B5B6923F0C06323F4FE437A687E
:103DB800926811027A6812695208013A52060A4357
:103DC800154913434B61144B1B68134A43F0805346
:103DD8001360FCF7E5FBB86009E0FCF7E1FB02467D
:103DE800BB68D31A022B02D90323FB7305E00A4BE5
:103DF8001B6803F00053002BEFD0FB7B002B06D190
:103E0800054B5A697B685B69034913434B61FB7B2C
:103E180018461037BD4680BD0010024080B584B0FA
:103E280000AF78607B68002B01D1012395E07B68A7
:103E38005B6A002B08D17B685B68B3F5827F09D089
:103E48007B680022DA6105E07B6800221A617B68E2
:103E580000225A617B6800229A627B6893F85D3081
:103E6800DBB2002B06D17B68002283F85C207868DF
:103E780001F0D2F97B68022283F85D207B681B6819
:103E88001A687B681B6822F040021A607B68DB684E
:103E9800B3F5E06F02D90023FB6002E04FF48053D2
:103EA800FB607B68DB68B3F5706F07D07B68DB6805
:103EB800B3F5E06F02D07B6800229A627B685B688A
:103EC80003F482727B689B6803F404431A437B689B
:103ED8001B6903F002031A437B685B6903F0010363
:103EE8001A437B689B6903F400731A437B68DB6998
:103EF80003F038031A437B681B6A03F0800342EA25
:103F080003017B689B6A03F400527B681B680A43C1
:103F18001A607B689B691B0C03F004027B685B6A70
:103F280003F010031A437B685B6B03F008031A4322
:103F38007B68DB6803F4706342EA0301FB6803F4FF
:103F480080527B681B680A435A607B6800221A66A5
:103F58007B68012283F85D20002318461037BD4690
:103F680080BD80B582B000AF78607B68002B01D13E
:103F7800012349E07B6893F83D30DBB2002B06D182
:103F88007B68002283F83C20786801F089F97B6817
:103F9800022283F83D207B681A687B68043319463F
:103FA800104600F0F7F97B68012283F848207B6807
:103FB800012283F83E207B68012283F83F207B683A
:103FC800012283F840207B68012283F841207B6826
:103FD800012283F842207B68012283F843207B6812
:103FE800012283F844207B68012283F845207B68FE
:103FF800012283F846207B68012283F847207B68EA
:10400800012283F83D20002318460837BD4680BDAD
:1040180080B485B000AF78607B6893F83D30DBB240
:10402800012B01D001234FE07B68022283F83D2059
:104038007B681B68DA687B681B6842F00102DA60FB
:104048007B681B68234A93421DD07B681B68B3F1C9
:10405800804F18D07B681B681F4A934213D07B6837
:104068001B681E4A93420ED07B681B681C4A934209
:1040780009D07B681B681B4A934204D07B681B6885
:10408800194A934215D17B681B689A68174B1340ED
:10409800FB60FB68062B15D0FB68B3F5803F11D099
:1040A8007B681B681A687B681B6842F001021A600B
:1040B80008E07B681B681A687B681B6842F001028D
:1040C8001A6000E000BF002318461437BD465DF8AB
:1040D800047B7047002C01400004004000080040A9
:1040E800000C00400034014000400140070001007E
:1040F80080B582B000AF78607B681B681B6903F0ED
:104108000203022B22D17B681B68DB6803F00203E1
:10411800022B1BD17B681B686FF002021A617B6857
:1041280001221A777B681B689B6903F00303002B45
:1041380003D0786800F00FF905E0786800F001F91D
:10414800786800F012F97B6800221A777B681B6890
:104158001B6903F00403042B22D17B681B68DB680E
:1041680003F00403042B1BD17B681B686FF0040267
:104178001A617B6802221A777B681B689B6903F4C3
:104188004073002B03D0786800F0E5F805E0786804
:1041980000F0D7F8786800F0E8F87B6800221A7712
:1041A8007B681B681B6903F00803082B22D17B6816
:1041B8001B68DB6803F00803082B1BD17B681B68AE
:1041C8006FF008021A617B6804221A777B681B6803
:1041D800DB6903F00303002B03D0786800F0BBF819
:1041E80005E0786800F0ADF8786800F0BEF87B6804
:1041F80000221A777B681B681B6903F01003102BD9
:1042080022D17B681B68DB6803F01003102B1BD1DD
:104218007B681B686FF010021A617B6808221A77A6
:104228007B681B68DB6903F44073002B03D0786854
:1042380000F091F805E0786800F083F8786800F0FD
:1042480094F87B6800221A777B681B681B6903F067
:104258000103012B0ED17B681B68DB6803F00103A7
:10426800012B07D17B681B686FF001021A6178681F
:1042780000F05DF87B681B681B6903F08003802BE6
:104288000ED17B681B68DB6803F08003802B07D1A5
:104298007B681B686FF080021A61786800F0A6F9E5
:1042A8007B681B681B6903F48073B3F5807F0ED1AC
:1042B8007B681B68DB6803F08003802B07D17B6871
:1042C8001B686FF480721A61786800F099F97B684E
:1042D8001B681B6903F04003402B0ED17B681B68E9
:1042E800DB6803F04003402B07D17B681B686FF045
:1042F80040021A61786800F042F87B681B681B6905
:1043080003F02003202B0ED17B681B68DB6803F0C9
:104318002003202B07D17B681B686FF020021A61ED
:10432800786800F059F900BF0837BD4680BD80B4F1
:1043380083B000AF786000BF0C37BD465DF8047BE2
:10434800704780B483B000AF786000BF0C37BD46BB
:104358005DF8047B704780B483B000AF786000BF1D
:104368000C37BD465DF8047B704780B483B000AF5E
:10437800786000BF0C37BD465DF8047B704780B499
:1043880083B000AF786000BF0C37BD465DF8047B92
:104398007047000080B485B000AF786039607B68F2
:1043A8001B68FB607B68404A934213D07B68B3F17B
:1043B800804F0FD07B683D4A93420BD07B683C4AC4
:1043C800934207D07B683B4A934203D07B683A4AC2
:1043D800934208D1FB6823F07003FB603B685B687D
:1043E800FA681343FB607B682F4A93421FD07B68AF
:1043F800B3F1804F1BD07B682C4A934217D07B685F
:104408002B4A934213D07B682A4A93420FD07B6889
:10441800294A93420BD07B68284A934207D07B688D
:10442800274A934203D07B68264A934208D1FB6807
:1044380023F44073FB603B68DB68FA681343FB6056
:10444800FB6823F080023B685B691343FB607B6871
:10445800FA681A603B689A687B68DA623B681A688F
:104468007B689A627B68104A93420FD07B68124A35
:1044780093420BD07B68114A934207D07B68104A5D
:10448800934203D07B680F4A934203D13B681A6971
:104498007B681A637B6801225A6100BF1437BD46E6
:1044A8005DF8047B704700BF002C01400004004009
:1044B80000080040000C004000340140004001406A
:1044C800004401400048014080B485B000AF7860E6
:1044D80039607B6893F83C30012B01D1022368E0F6
:1044E8007B68012283F83C207B68022283F83D2008
:1044F8007B681B685B68FB607B681B689B68BB60AC
:104508007B681B682E4A934204D07B681B682D4A3F
:10451800934208D1FB6823F47003FB603B685B6837
:10452800FA681343FB60FB6823F07003FB603B6889
:104538001B68FA681343FB607B681B68FA685A605B
:104548007B681B681E4A93421DD07B681B68B3F1C9
:10455800804F18D07B681B681B4A934213D07B6836
:104568001B681A4A93420ED07B681B68184A93420C
:1045780009D07B681B68134A934204D07B681B6888
:10458800144A93420CD1BB6823F08003BB603B689C
:104598009B68BA681343BB607B681B68BA689A60FB
:1045A8007B68012283F83D207B68002283F83C2049
:1045B800002318461437BD465DF8047B704700BFDA
:1045C800002C014000340140000400400008004075
:1045D800000C00400040014080B483B000AF786018
:1045E80000BF0C37BD465DF8047B704780B483B0CC
:1045F80000AF786000BF0C37BD465DF8047B70479C
:1046080080B483B000AF786000BF0C37BD465DF85A
:10461800047B70472DE99048ADF5036D00AF642326
:10462800C7F824386423C7F820380A23C7F81C3889
:104638000023C7F82C380023A7F82A3807F1080305
:1046480018464FF400631A46002100F011FF3B1D85
:104658000E221A80FBF734FF00F002F900F0F6FA98
:1046680000F074F900F0BCFA00F0E6F900F048FA3E
:1046780000F078FA7448FFF7CBFC10217348FDF777
:10468800A0FD7F217248FDF701FB7F217048FDF7EF
:104698005DFBC7F81808D7F818287F216C48FDF784
:1046A80065FB6B48FCF730FB0A216948FCF71AFCEC
:1046B8006748FCF7E7FC0346A7F816386448FCF798
:1046C800DDFB6448FCF720FB0A216248FCF70AFC82
:1046D8006048FCF7D7FC0346A7F814385D48FCF798
:1046E800CDFBB7F8163840F6B83202FB03F3002BBF
:1046F80001DA03F2FF73DB124FEAE37407F60802EC
:10470800C2E90034D7F820384FF000041A4623468F
:1047180007F60801D1E90001FBF752FD03460C46F4
:1047280007F60802C2E90034B7F814384FF000045D
:10473800D7F8082804FB02F1D7F80C2803FB02F28B
:104748000A44D7F80818A1FB0334224414469B46B0
:10475800A4461BEB0B014CEB0C028B4694461BEB5F
:1047680003014CEB04024FF000034FF00004CB0AA6
:1047780043EA4253D40A07F60802C2E90034D7F8DC
:1047880024384FF0000407F60802D2E90012A242CA
:1047980008BF99420ED2D7F81C38C3F58053D7F812
:1047A8002C289A4206D2D7F82C28D7F81C3813445C
:1047B800C7F82C38D7F8243819464FF0000207F606
:1047C8000803D3E90034A24208BF99420CD2D7F8B3
:1047D8002C28D7F81C389A4206D9D7F82C28D7F8AD
:1047E8001C38D31AC7F82C38D7F82C3800221021D7
:1047F8001648FDF733FD184B1B88012B0FD1B7F86E
:104808002A2807F10803B7F8161823F81210B7F882
:104818002A380133A7F82A380F4B00221A80B7F834
:10482800163840F6AC52934206D901224FF4006183
:104838000A48FDF7FBFF24E700224FF40061074810
:10484800FDF7F4FF1DE700BF7801002034000020C9
:10485800B000002048000020AC00002000100048F4
:1048680080B5B8B000AF07F19C0344220021184678
:1048780000F0FEFD07F1880300221A605A609A6072
:10488800DA601A613B4688220021184600F0F0FDE4
:104898001023C7F89C300123C7F8B4300023C7F8A9
:1048A800B8306023C7F8BC300023C7F8C43007F11C
:1048B8009C031846FEF750F80346002B01D000F081
:1048C800C5FB0F23C7F888300023C7F88C300023B6
:1048D800C7F890300023C7F894300023C7F8983001
:1048E80007F1880300211846FEF71CFC0346002B3D
:1048F80001D000F0ABFB4FF480433B604FF0805396
:10490800BB6701237B600123BB601023FB60072387
:104918003B6102237B610223BB614FF08073FB6123
:104928003B461846FEF7CAFD0346002B01D000F0AF
:104938008DFB4FF40070FDF7B9FF0346002B01D043
:1049480000F084FB00BFE037BD4680BD80B58AB06B
:1049580000AF07F11C0300221A605A609A603B1DE1
:1049680000221A605A609A60DA601A615A612F4B05
:104978002F4A1A602D4B00225A602C4B00229A6055
:104988002A4B0022DA60294B00221A61274B0422A5
:104998005A61264B00221A76244B00225A76234B62
:1049A8000122DA61214B002283F820201F4B0022CC
:1049B8009A621E4B0022DA621C4B002283F83020D8
:1049C8001A4B00225A63194B002283F838201748E3
:1049D800FCF746F80346002B01D000F037FB002314
:1049E800FB6107F11C0319461048FDF70BFA034653
:1049F800002B01D000F02AFB0E4B7B600623BB6026
:104A08000023FB607F233B6104237B610023BB61A0
:104A18003B1D19460548FCF743FB0346002B01D014
:104A280000F014FB00BF2837BD4680BDB000002051
:104A3800000004504000201980B586B000AF3B4606
:104A480000221A605A609A60DA601A615A61294B2A
:104A5800294A1A60274B00225A60264B00229A6086
:104A6800244B0022DA60234B00221A61214B0422D6
:104A78005A61204B00221A761E4B00225A761D4B93
:104A88000122DA611B4B002283F82020194B0022F7
:104A98009A62184B0022DA62164B002283F8302003
:104AA800144B00225A63134B002283F83820114814
:104AB800FBF7D6FF0346002B01D000F0C7FA0F4BD7
:104AC8003B6006237B600023BB607F23FB600423DD
:104AD8003B6100237B613B4619460648FCF7E0FA38
:104AE8000346002B01D000F0B1FA00BF1837BD46CD
:104AF80080BD00BF48000020000104508000501D08
:104B080080B58AB000AF3B1D24220021184600F072
:104B1800AFFC124B124A1A601048FDF730FB0346EF
:104B2800002B01D000F092FA00237B600023BB60C9
:104B38000023FB6000233B6100237B613B1D1022A7
:104B480019460648FDF7AFFB0346002B01D000F0DD
:104B58007DFA00BF2837BD4680BD00BF3400002065
:104B68000074004080B500AF1B4B1C4A1A601A4BFA
:104B78004FF482725A60184B00229A60164B4FF419
:104B8800E062DA60144B00221A61134B00225A616A
:104B9800114B4FF400729A610F4B0822DA610E4BE9
:104BA80000221A620C4B00225A620B4B00229A62B6
:104BB800094B0722DA62084B00221A63064B0822C7
:104BC8005A630548FFF72AF90346002B01D000F085
:104BD8003DFA00BF80BD00BF140100200030014035
:104BE80080B584B000AF3B1D00221A605A609A60FD
:104BF800144B154A1A60134B64225A60114B002259
:104C08009A60104B49F64042DA600E4B80229A6156
:104C18000C48FFF7A6F90346002B01D000F016FA5E
:104C280020237B600023FB603B1D19460548FFF7E6
:104C38004BFC0346002B01D000F008FA00BF1037E8
:104C4800BD4680BD780100200014004080B58CB0BE
:104C580000AF07F11C0300221A605A609A60DA60FC
:104C68001A61B64BDB6CB54A43F01003D364B34BFF
:104C7800DB6C03F01003BB61BB69B04BDB6CAF4A64
:104C880043F00403D364AD4BDB6C03F004037B6196
:104C98007B69AA4BDB6CA94A43F08003D364A74B1A
:104CA800DB6C03F080033B613B69A44BDB6CA34ADC
:104CB80043F00103D364A14BDB6C03F00103FB60F9
:104CC800FB689E4BDB6C9D4A43F00203D3649B4B0D
:104CD800DB6C03F00203BB60BB68984BDB6C974A44
:104CE80043F00803D364954BDB6C03F008037B6047
:104CF8007B68002241F609119148FDF797FD0022D3
:104D08000C219048FDF792FD01224FF400718E4866
:104D1800FDF78CFD00224FF400618B48FDF786FDFE
:104D2800002280218948FDF781FDF423FB610223DD
:104D38003B6200237B620323BB620D23FB6207F106
:104D48001C0319467E48FDF7C9FB0823FB610123B4
:104D58003B6200237B620223BB6207F11C031946F6
:104D68007748FDF7BBFB4FF41053FB61784B3B6270
:104D780000237B6207F11C0319467348FDF7AEFB5D
:104D88000723FB6100233B6200237B6207F11C03BE
:104D980019466D48FDF7A2FB4FF4FC73FB61022333
:104DA8003B6200237B620023BB620B23FB6207F19B
:104DB8001C0319466448FDF791FB1023FB61644B03
:104DC8003B6200237B6207F11C0319464FF09040B9
:104DD800FDF784FB48F2C073FB6102233B620023AA
:104DE8007B620023BB620B23FB6207F11C0319469D
:104DF8004FF09040FDF772FB4FF23323FB61022323
:104E08003B6200237B620023BB620B23FB6207F13A
:104E18001C0319464B48FDF761FB0423FB61012382
:104E28003B6201237B620323BB6207F11C03194623
:104E38004448FDF753FB4FF48073FB6101233B6249
:104E480001237B620323BB6207F11C0319463C481C
:104E5800FDF744FB4FF40073FB6102233B62002320
:104E68007B620023BB620D23FB6207F11C0319461A
:104E78003348FDF733FB4FF48063FB6100233B624B
:104E880000237B6207F11C0319462D48FDF726FB1A
:104E980041F60103FB6101233B6200237B6200238F
:104EA800BB6207F11C0319462548FDF717FB4FF4B1
:104EB8004063FB6112233B6201237B620323BB62D5
:104EC8000423FB6207F11C0319461E48FDF706FB85
:104ED8004FF47F43FB6102233B6200237B62002384
:104EE800BB620B23FB6207F11C0319461748FDF749
:104EF800F5FA4FF42063FB6101233B6200237B62D8
:104F08000023BB6207F11C0319460F48FDF7E6FAB8
:104F18004FF4C053FB6102233B6200237B620323EF
:104F2800BB620A23FB6207F11C0319464FF090404D
:104F3800FDF7D4FA0523FB610CE000BF0010024026
:104F4800001000480004004800080048000C004811
:104F580000001210394B3B6200237B6207F11C03EF
:104F680019463748FDF7BAFA1A23FB6102233B6258
:104F780000237B620323BB620523FB6207F11C034A
:104F880019462F48FDF7AAFA6023FB6102233B620A
:104F980001237B620323BB620723FB6207F11C0327
:104FA80019462748FDF79AFA8023FB6101233B62E3
:104FB80000237B620323BB6207F11C0319462048C8
:104FC800FDF78CFA0823FB6101233B6200237B6217
:104FD8000023BB6207F11C0319461A48FDF77EFA45
:104FE800C023FB6112233B6201237B620323BB6264
:104FF8000423FB6207F11C0319461248FDF76EFAF9
:105008004FF48073FB610D4B3B6200237B6207F119
:105018001C0319460B48FDF761FA0223FB61074B95
:105028003B6200237B6207F11C0319460648FDF723
:1050380055FA00BF3037BD4680BD00BF00001210D2
:10504800000C0048000400480010004880B400AF7D
:1050580072B6FEE780B483B000AF0F4B1B6E0E4AEA
:1050680043F0010313660C4B1B6E03F001037B60D6
:105078007B68094B9B6D084A43F080539365064B48
:105088009B6D03F080533B603B6800BF0C37BD4607
:105098005DF8047B704700BF0010024080B58CB0FB
:1050A80000AF786007F11C0300221A605A609A600A
:1050B800DA601A617B681B68344A93422ED1344BFC
:1050C8001B680133324A1360314B1B68012B0BD12B
:1050D800304BDB6C2F4A43F40053D3642D4BDB6C0D
:1050E80003F40053BB61BB692A4BDB6C294A43F0CC
:1050F8000103D364274BDB6C03F001037B617B69FD
:105108000223FB610B233B6200237B6207F11C0334
:1051180019464FF09040FDF7E1F932E07B681B68D3
:105128001D4A93422DD11A4B1B680133184A13604C
:10513800174B1B68012B0BD1164BDB6C154A43F43C
:105148000053D364134BDB6C03F400533B613B699E
:10515800104BDB6C0F4A43F00103D3640D4BDB6C3F
:1051680003F00103FB60FB680423FB610B233B6234
:1051780000237B6207F11C0319464FF09040FDF7AE
:10518800ADF900BF3037BD4680BD00BF00000450F8
:105198002C000020001002400001045080B58AB0A5
:1051A80000AF786007F1140300221A605A609A6011
:1051B800DA601A617B681B68154A934224D1154B43
:1051C8009B6D144A43F000539365124B9B6D03F09B
:1051D80000533B613B690F4BDB6C0E4A43F0010304
:1051E800D3640C4BDB6C03F00103FB60FB682023EA
:1051F8007B610323BB610023FB6107F1140319469C
:105208004FF09040FDF76AF900BF2837BD4680BDD2
:10521800007400400010024080B58AB000AF78608A
:1052280007F1140300221A605A609A60DA601A6162
:105238007B681B68174A934228D1174B1B6E164A86
:1052480043F480531366144B1B6E03F480533B6185
:105258003B69114BDB6C104A43F01003D3640E4BCF
:10526800DB6C03F01003FB60FB684FF460437B6169
:105278000223BB610023FB6103233B6205237B629E
:1052880007F1140319460548FDF728F900BF283728
:10529800BD4680BD003001400010024000100048AB
:1052A80080B584B000AF78607B681B680D4A934274
:1052B80013D10D4B9B6D0C4A43F0200393650A4BA9
:1052C8009B6D03F02003FB60FB6800220021372060
:1052D800FCF71FFF3720FCF738FF00BF1037BD462B
:1052E80080BD00BF001400400010024080B400AF31
:1052F800FEE780B400AFFEE780B400AFFEE780B4FD
:1053080000AFFEE780B400AFFEE780B400AF00BF97
:10531800BD465DF8047B704780B400AF00BFBD4652
:105328005DF8047B704780B400AF00BFBD465DF8F0
:10533800047B704780B500AFFBF71EF900BF80BD46
:1053480080B500AF0548FEF7D3FE04210448FDF7F9
:1053580085FA044B01221A8000BF80BD7801002025
:1053680000040048AC00002080B400AF174BD3F80D
:105378008830164A43F47003C2F88830144B1B680F
:10538800134A43F001031360114B00229A60104B3B
:105398001B680F4A23F0A85323F4102313600C4B07
:1053A8004FF48052DA600A4B1B68094A23F48023C1
:1053B8001360074B00229A61044B4FF000629A6019
:1053C80000BFBD465DF8047B704700BF00ED00E0FC
:1053D80000100240DFF834D0FFF7C6FF002103E0D9
:1053E8000B4B5B58435004310A480B4B42189A4206
:1053F800F6D30A4A02E0002342F8043B084B9A42DB
:10540800F9D300F011F8FFF705F9FEE70080012055
:1054180000550008000000201000002010000020A7
:10542800C4010020FEE7000070B50D4E0D4CA41B12
:10543800A4100025A54209D10B4E0C4C00F020F811
:10544800A41BA4100025A54205D170BD56F825302F
:1054580098470135EEE756F8253098470135F2E7C9
:10546800F0540008F0540008F0540008F454000800
:1054780002440346934200D1704703F8011BF9E741
:10548800F8B500BFF8BC08BC9E467047F8B500BF29
:08549800F8BC08BC9E467047F9
:1054A00000000000000000000102030406070809D4
:1054B0000000000001020304A0860100400D03006B
:1054C000801A060000350C0040420F0080841E0048
:1054D00000093D0000127A000024F40000366E013D
:0854E0000048E801006CDC0249
:0854E80010ADFF7F0100000080
:0854F000AD01000800000000FE
:0854F80089010008000000001A
:10550000100000000100000000093D000000000044
:04000005080053DDBF
:00000001FF
